{
  "contractName": "Membership",
  "abi": [
    {
      "inputs": [],
      "stateMutability": "nonpayable",
      "type": "constructor"
    },
    {
      "anonymous": false,
      "inputs": [
        {
          "indexed": false,
          "internalType": "string",
          "name": "itemDesc",
          "type": "string"
        },
        {
          "indexed": false,
          "internalType": "uint256",
          "name": "orgaId",
          "type": "uint256"
        },
        {
          "indexed": false,
          "internalType": "string",
          "name": "old",
          "type": "string"
        },
        {
          "indexed": false,
          "internalType": "string",
          "name": "newValue",
          "type": "string"
        },
        {
          "indexed": false,
          "internalType": "address",
          "name": "by",
          "type": "address"
        }
      ],
      "name": "ItemModified",
      "type": "event"
    },
    {
      "anonymous": false,
      "inputs": [
        {
          "indexed": false,
          "internalType": "uint256",
          "name": "orgaId",
          "type": "uint256"
        },
        {
          "indexed": false,
          "internalType": "address",
          "name": "addedMember",
          "type": "address"
        }
      ],
      "name": "MemberAdded",
      "type": "event"
    },
    {
      "anonymous": false,
      "inputs": [
        {
          "indexed": false,
          "internalType": "uint256",
          "name": "orgaId",
          "type": "uint256"
        },
        {
          "indexed": false,
          "internalType": "address",
          "name": "addedMember",
          "type": "address"
        }
      ],
      "name": "MemberRevoked",
      "type": "event"
    },
    {
      "anonymous": false,
      "inputs": [
        {
          "indexed": false,
          "internalType": "uint256",
          "name": "orgaId",
          "type": "uint256"
        },
        {
          "indexed": false,
          "internalType": "string",
          "name": "name",
          "type": "string"
        },
        {
          "indexed": false,
          "internalType": "address",
          "name": "by",
          "type": "address"
        },
        {
          "indexed": false,
          "internalType": "uint256",
          "name": "createdAt",
          "type": "uint256"
        },
        {
          "indexed": false,
          "internalType": "string",
          "name": "logoURI",
          "type": "string"
        },
        {
          "indexed": false,
          "internalType": "string",
          "name": "certificationURI",
          "type": "string"
        },
        {
          "indexed": false,
          "internalType": "string",
          "name": "membershipCriteria",
          "type": "string"
        },
        {
          "indexed": false,
          "internalType": "string",
          "name": "revokationCriteria",
          "type": "string"
        },
        {
          "indexed": false,
          "internalType": "bool",
          "name": "canRevoke",
          "type": "bool"
        }
      ],
      "name": "NewOrganization",
      "type": "event"
    },
    {
      "inputs": [
        {
          "internalType": "uint256",
          "name": "",
          "type": "uint256"
        }
      ],
      "name": "_organizations",
      "outputs": [
        {
          "internalType": "uint256",
          "name": "id",
          "type": "uint256"
        },
        {
          "internalType": "address",
          "name": "admin",
          "type": "address"
        },
        {
          "internalType": "string",
          "name": "name",
          "type": "string"
        },
        {
          "internalType": "string",
          "name": "logoURI",
          "type": "string"
        },
        {
          "internalType": "string",
          "name": "certificationURI",
          "type": "string"
        },
        {
          "internalType": "string",
          "name": "membershipCriteria",
          "type": "string"
        },
        {
          "internalType": "string",
          "name": "revokationCriteria",
          "type": "string"
        },
        {
          "internalType": "bool",
          "name": "canRevoke",
          "type": "bool"
        }
      ],
      "stateMutability": "view",
      "type": "function",
      "constant": true
    },
    {
      "inputs": [],
      "name": "memberCounter",
      "outputs": [
        {
          "internalType": "uint256",
          "name": "_value",
          "type": "uint256"
        }
      ],
      "stateMutability": "view",
      "type": "function",
      "constant": true
    },
    {
      "inputs": [
        {
          "internalType": "address",
          "name": "",
          "type": "address"
        }
      ],
      "name": "memberToTotalOrganizations",
      "outputs": [
        {
          "internalType": "uint256",
          "name": "_value",
          "type": "uint256"
        }
      ],
      "stateMutability": "view",
      "type": "function",
      "constant": true
    },
    {
      "inputs": [],
      "name": "orgaCounter",
      "outputs": [
        {
          "internalType": "uint256",
          "name": "_value",
          "type": "uint256"
        }
      ],
      "stateMutability": "view",
      "type": "function",
      "constant": true
    },
    {
      "inputs": [
        {
          "internalType": "uint256",
          "name": "",
          "type": "uint256"
        }
      ],
      "name": "organizationToTotalMembers",
      "outputs": [
        {
          "internalType": "uint256",
          "name": "_value",
          "type": "uint256"
        }
      ],
      "stateMutability": "view",
      "type": "function",
      "constant": true
    },
    {
      "inputs": [
        {
          "internalType": "string",
          "name": "name_",
          "type": "string"
        },
        {
          "internalType": "string",
          "name": "logoURI_",
          "type": "string"
        },
        {
          "internalType": "string",
          "name": "certificationURI_",
          "type": "string"
        },
        {
          "internalType": "string",
          "name": "membershipCriteria_",
          "type": "string"
        },
        {
          "internalType": "bool",
          "name": "canRevoke_",
          "type": "bool"
        },
        {
          "internalType": "string",
          "name": "revokationCriteria_",
          "type": "string"
        }
      ],
      "name": "createOrganization",
      "outputs": [],
      "stateMutability": "nonpayable",
      "type": "function"
    },
    {
      "inputs": [
        {
          "internalType": "uint256",
          "name": "orgaId_",
          "type": "uint256"
        },
        {
          "internalType": "address",
          "name": "newMember_",
          "type": "address"
        }
      ],
      "name": "addMember",
      "outputs": [],
      "stateMutability": "nonpayable",
      "type": "function"
    },
    {
      "inputs": [
        {
          "internalType": "uint256",
          "name": "orgaId_",
          "type": "uint256"
        },
        {
          "internalType": "address",
          "name": "member_",
          "type": "address"
        }
      ],
      "name": "revokeMember",
      "outputs": [],
      "stateMutability": "nonpayable",
      "type": "function"
    },
    {
      "inputs": [
        {
          "internalType": "address",
          "name": "member_",
          "type": "address"
        }
      ],
      "name": "memberOf",
      "outputs": [
        {
          "internalType": "uint256[]",
          "name": "",
          "type": "uint256[]"
        }
      ],
      "stateMutability": "view",
      "type": "function",
      "constant": true
    },
    {
      "inputs": [
        {
          "internalType": "uint256",
          "name": "orgaId_",
          "type": "uint256"
        },
        {
          "internalType": "string",
          "name": "name_",
          "type": "string"
        }
      ],
      "name": "changeName",
      "outputs": [],
      "stateMutability": "nonpayable",
      "type": "function"
    },
    {
      "inputs": [
        {
          "internalType": "uint256",
          "name": "orgaId_",
          "type": "uint256"
        },
        {
          "internalType": "string",
          "name": "newURI_",
          "type": "string"
        }
      ],
      "name": "changeLogoURI",
      "outputs": [],
      "stateMutability": "nonpayable",
      "type": "function"
    },
    {
      "inputs": [
        {
          "internalType": "uint256",
          "name": "orgaId_",
          "type": "uint256"
        },
        {
          "internalType": "string",
          "name": "newURI_",
          "type": "string"
        }
      ],
      "name": "changeCertificationURI",
      "outputs": [],
      "stateMutability": "nonpayable",
      "type": "function"
    },
    {
      "inputs": [
        {
          "internalType": "uint256",
          "name": "orgaId_",
          "type": "uint256"
        },
        {
          "internalType": "string",
          "name": "newMembershipCriteria_",
          "type": "string"
        }
      ],
      "name": "changeMembershipCriteria",
      "outputs": [],
      "stateMutability": "nonpayable",
      "type": "function"
    },
    {
      "inputs": [
        {
          "internalType": "uint256",
          "name": "orgaId_",
          "type": "uint256"
        },
        {
          "internalType": "string",
          "name": "newRevokationCriteria_",
          "type": "string"
        }
      ],
      "name": "changeRevokationCriteria",
      "outputs": [],
      "stateMutability": "nonpayable",
      "type": "function"
    },
    {
      "inputs": [
        {
          "internalType": "address",
          "name": "member_",
          "type": "address"
        },
        {
          "internalType": "uint256",
          "name": "orgaId_",
          "type": "uint256"
        }
      ],
      "name": "isMemberOf",
      "outputs": [
        {
          "internalType": "bool",
          "name": "",
          "type": "bool"
        }
      ],
      "stateMutability": "view",
      "type": "function",
      "constant": true
    },
    {
      "inputs": [
        {
          "internalType": "string",
          "name": "str",
          "type": "string"
        }
      ],
      "name": "stringLength",
      "outputs": [
        {
          "internalType": "uint256",
          "name": "",
          "type": "uint256"
        }
      ],
      "stateMutability": "pure",
      "type": "function",
      "constant": true
    }
  ],
  "bytecode": "0x608060405234801561001057600080fd5b50612e30806100206000396000f3fe608060405234801561001057600080fd5b50600436106101005760003560e01c806374d0a67611610097578063b30e6f8511610066578063b30e6f85146102c4578063c39cbef1146102e0578063c97f8eb9146102fc578063ed1195611461031857610100565b806374d0a6761461022a5780637dd4411b14610246578063892200ec14610264578063b118060e1461029457610100565b80633b4c9891116100d35780633b4c9891146101775780633cab149f146101a75780635d0d7503146101de578063720d0e86146101fa57610100565b806308922c04146101055780630b2a2264146101235780631ff2d6e01461013f5780632523e8b81461015b575b600080fd5b61010d610348565b60405161011a9190611dd5565b60405180910390f35b61013d60048036038101906101389190611f76565b610354565b005b61015960048036038101906101549190611f76565b610501565b005b61017560048036038101906101709190611f76565b6106ae565b005b610191600480360381019061018c9190612030565b61085b565b60405161019e919061211b565b60405180910390f35b6101c160048036038101906101bc919061213d565b6108f2565b6040516101d598979695949392919061221c565b60405180910390f35b6101f860048036038101906101f391906122e9565b610c1f565b005b610214600480360381019061020f919061213d565b610f03565b6040516102219190611dd5565b60405180910390f35b610244600480360381019061023f9190612402565b610f21565b005b61024e61116d565b60405161025b9190611dd5565b60405180910390f35b61027e60048036038101906102799190612442565b611179565b60405161028b9190612482565b60405180910390f35b6102ae60048036038101906102a991906124fd565b611257565b6040516102bb9190611dd5565b60405180910390f35b6102de60048036038101906102d99190612402565b611265565b005b6102fa60048036038101906102f59190611f76565b61145c565b005b61031660048036038101906103119190611f76565b611609565b005b610332600480360381019061032d9190612030565b6117b6565b60405161033f9190611dd5565b60405180910390f35b60008060000154905081565b81600681815481106103695761036861254a565b5b906000526020600020906008020160010160009054906101000a900473ffffffffffffffffffffffffffffffffffffffff1673ffffffffffffffffffffffffffffffffffffffff163373ffffffffffffffffffffffffffffffffffffffff16146103d257600080fd5b6000600684815481106103e8576103e761254a565b5b90600052602060002090600802016004018054610404906125a8565b80601f0160208091040260200160405190810160405280929190818152602001828054610430906125a8565b801561047d5780601f106104525761010080835404028352916020019161047d565b820191906000526020600020905b81548152906001019060200180831161046057829003601f168201915b5050505050905082600685815481106104995761049861254a565b5b906000526020600020906008020160040190805190602001906104bd929190611d19565b507f38dd6b086463fcf03720885b5e3e21ab397c809ff974a82b2b393a794a9b12d0848285336040516104f39493929190612626565b60405180910390a150505050565b81600681815481106105165761051561254a565b5b906000526020600020906008020160010160009054906101000a900473ffffffffffffffffffffffffffffffffffffffff1673ffffffffffffffffffffffffffffffffffffffff163373ffffffffffffffffffffffffffffffffffffffff161461057f57600080fd5b6000600684815481106105955761059461254a565b5b906000526020600020906008020160060180546105b1906125a8565b80601f01602080910402602001604051908101604052809291908181526020018280546105dd906125a8565b801561062a5780601f106105ff5761010080835404028352916020019161062a565b820191906000526020600020905b81548152906001019060200180831161060d57829003601f168201915b5050505050905082600685815481106106465761064561254a565b5b9060005260206000209060080201600601908051906020019061066a929190611d19565b507f38dd6b086463fcf03720885b5e3e21ab397c809ff974a82b2b393a794a9b12d0848285336040516106a094939291906126d8565b60405180910390a150505050565b81600681815481106106c3576106c261254a565b5b906000526020600020906008020160010160009054906101000a900473ffffffffffffffffffffffffffffffffffffffff1673ffffffffffffffffffffffffffffffffffffffff163373ffffffffffffffffffffffffffffffffffffffff161461072c57600080fd5b6000600684815481106107425761074161254a565b5b9060005260206000209060080201600501805461075e906125a8565b80601f016020809104026020016040519081016040528092919081815260200182805461078a906125a8565b80156107d75780601f106107ac576101008083540402835291602001916107d7565b820191906000526020600020905b8154815290600101906020018083116107ba57829003601f168201915b5050505050905082600685815481106107f3576107f261254a565b5b90600052602060002090600802016005019080519060200190610817929190611d19565b507f38dd6b086463fcf03720885b5e3e21ab397c809ff974a82b2b393a794a9b12d08482853360405161084d949392919061278a565b60405180910390a150505050565b6060600560008373ffffffffffffffffffffffffffffffffffffffff1673ffffffffffffffffffffffffffffffffffffffff1681526020019081526020016000208054806020026020016040519081016040528092919081815260200182805480156108e657602002820191906000526020600020905b8154815260200190600101908083116108d2575b50505050509050919050565b6006818154811061090257600080fd5b90600052602060002090600802016000915090508060000154908060010160009054906101000a900473ffffffffffffffffffffffffffffffffffffffff1690806002018054610951906125a8565b80601f016020809104026020016040519081016040528092919081815260200182805461097d906125a8565b80156109ca5780601f1061099f576101008083540402835291602001916109ca565b820191906000526020600020905b8154815290600101906020018083116109ad57829003601f168201915b5050505050908060030180546109df906125a8565b80601f0160208091040260200160405190810160405280929190818152602001828054610a0b906125a8565b8015610a585780601f10610a2d57610100808354040283529160200191610a58565b820191906000526020600020905b815481529060010190602001808311610a3b57829003601f168201915b505050505090806004018054610a6d906125a8565b80601f0160208091040260200160405190810160405280929190818152602001828054610a99906125a8565b8015610ae65780601f10610abb57610100808354040283529160200191610ae6565b820191906000526020600020905b815481529060010190602001808311610ac957829003601f168201915b505050505090806005018054610afb906125a8565b80601f0160208091040260200160405190810160405280929190818152602001828054610b27906125a8565b8015610b745780601f10610b4957610100808354040283529160200191610b74565b820191906000526020600020905b815481529060010190602001808311610b5757829003601f168201915b505050505090806006018054610b89906125a8565b80601f0160208091040260200160405190810160405280929190818152602001828054610bb5906125a8565b8015610c025780601f10610bd757610100808354040283529160200191610c02565b820191906000526020600020905b815481529060010190602001808311610be557829003601f168201915b5050505050908060070160009054906101000a900460ff16905088565b60003073ffffffffffffffffffffffffffffffffffffffff1663b118060e886040518263ffffffff1660e01b8152600401610c5a91906127f0565b60206040518083038186803b158015610c7257600080fd5b505afa158015610c86573d6000803e3d6000fd5b505050506040513d601f19601f82011682018060405250810190610caa9190612827565b11610cea576040517f08c379a0000000000000000000000000000000000000000000000000000000008152600401610ce1906128a0565b60405180910390fd5b6000610cf660006117d4565b905060066040518061010001604052808381526020013373ffffffffffffffffffffffffffffffffffffffff16815260200189815260200188815260200187815260200186815260200184815260200185151581525090806001815401808255809150506001900390600052602060002090600802016000909190919091506000820151816000015560208201518160010160006101000a81548173ffffffffffffffffffffffffffffffffffffffff021916908373ffffffffffffffffffffffffffffffffffffffff1602179055506040820151816002019080519060200190610de2929190611d19565b506060820151816003019080519060200190610dff929190611d19565b506080820151816004019080519060200190610e1c929190611d19565b5060a0820151816005019080519060200190610e39929190611d19565b5060c0820151816006019080519060200190610e56929190611d19565b5060e08201518160070160006101000a81548160ff0219169083151502179055505050604051806020016040528060008152506002600083815260200190815260200160002060008201518160000155905050610eb360006117e2565b7f98a54fdeb0b47649a0673854dbbb3d4e7839ba9857b3e93cab6ab3e6537d869f818833428a8a8a898b604051610ef2999897969594939291906128c0565b60405180910390a150505050505050565b60026020528060005260406000206000915090508060000154905081565b8160068181548110610f3657610f3561254a565b5b906000526020600020906008020160010160009054906101000a900473ffffffffffffffffffffffffffffffffffffffff1673ffffffffffffffffffffffffffffffffffffffff163373ffffffffffffffffffffffffffffffffffffffff1614610f9f57600080fd5b610fa98284611179565b15610fe9576040517f08c379a0000000000000000000000000000000000000000000000000000000008152600401610fe0906129e2565b60405180910390fd5b60046000848152602001908152602001600020829080600181540180825580915050600190039060005260206000200160009091909190916101000a81548173ffffffffffffffffffffffffffffffffffffffff021916908373ffffffffffffffffffffffffffffffffffffffff160217905550611078600260008581526020019081526020016000206117e2565b600560008373ffffffffffffffffffffffffffffffffffffffff1673ffffffffffffffffffffffffffffffffffffffff168152602001908152602001600020839080600181540180825580915050600190039060005260206000200160009091909190915055611125600360008473ffffffffffffffffffffffffffffffffffffffff1673ffffffffffffffffffffffffffffffffffffffff1681526020019081526020016000206117e2565b61112f60016117e2565b7ff328ac0f8bcae00933fe87ba0aa2d0d505c1df94bc9c1aa05b8441c28b74032c8383604051611160929190612a02565b60405180910390a1505050565b60018060000154905081565b600080600090505b600560008573ffffffffffffffffffffffffffffffffffffffff1673ffffffffffffffffffffffffffffffffffffffff1681526020019081526020016000208054905081101561124b5782600560008673ffffffffffffffffffffffffffffffffffffffff1673ffffffffffffffffffffffffffffffffffffffff168152602001908152602001600020828154811061121d5761121c61254a565b5b90600052602060002001541415611238576001915050611251565b808061124390612a5a565b915050611181565b50600090505b92915050565b600082829050905092915050565b816006818154811061127a5761127961254a565b5b906000526020600020906008020160010160009054906101000a900473ffffffffffffffffffffffffffffffffffffffff1673ffffffffffffffffffffffffffffffffffffffff163373ffffffffffffffffffffffffffffffffffffffff16146112e357600080fd5b600683815481106112f7576112f661254a565b5b906000526020600020906008020160070160009054906101000a900460ff16611355576040517f08c379a000000000000000000000000000000000000000000000000000000000815260040161134c90612b15565b60405180910390fd5b61135f8284611179565b61139e576040517f08c379a000000000000000000000000000000000000000000000000000000000815260040161139590612ba7565b60405180910390fd5b6113a882846117f8565b6113b28383611957565b6113cd60026000858152602001908152602001600020611aed565b611414600360008473ffffffffffffffffffffffffffffffffffffffff1673ffffffffffffffffffffffffffffffffffffffff168152602001908152602001600020611aed565b61141e6001611aed565b7ffd28dcb6239847778159329a03ef7d71770c5414ada7e5464f1013cd5b0aacde838360405161144f929190612a02565b60405180910390a1505050565b81600681815481106114715761147061254a565b5b906000526020600020906008020160010160009054906101000a900473ffffffffffffffffffffffffffffffffffffffff1673ffffffffffffffffffffffffffffffffffffffff163373ffffffffffffffffffffffffffffffffffffffff16146114da57600080fd5b6000600684815481106114f0576114ef61254a565b5b9060005260206000209060080201600201805461150c906125a8565b80601f0160208091040260200160405190810160405280929190818152602001828054611538906125a8565b80156115855780601f1061155a57610100808354040283529160200191611585565b820191906000526020600020905b81548152906001019060200180831161156857829003601f168201915b5050505050905082600685815481106115a1576115a061254a565b5b906000526020600020906008020160020190805190602001906115c5929190611d19565b507f38dd6b086463fcf03720885b5e3e21ab397c809ff974a82b2b393a794a9b12d0848285336040516115fb9493929190612c13565b60405180910390a150505050565b816006818154811061161e5761161d61254a565b5b906000526020600020906008020160010160009054906101000a900473ffffffffffffffffffffffffffffffffffffffff1673ffffffffffffffffffffffffffffffffffffffff163373ffffffffffffffffffffffffffffffffffffffff161461168757600080fd5b60006006848154811061169d5761169c61254a565b5b906000526020600020906008020160030180546116b9906125a8565b80601f01602080910402602001604051908101604052809291908181526020018280546116e5906125a8565b80156117325780601f1061170757610100808354040283529160200191611732565b820191906000526020600020905b81548152906001019060200180831161171557829003601f168201915b50505050509050826006858154811061174e5761174d61254a565b5b90600052602060002090600802016003019080519060200190611772929190611d19565b507f38dd6b086463fcf03720885b5e3e21ab397c809ff974a82b2b393a794a9b12d0848285336040516117a89493929190612cc5565b60405180910390a150505050565b60036020528060005260406000206000915090508060000154905081565b600081600001549050919050565b6001816000016000828254019250508190555050565b6000806118058484611b49565b91509150801561195157600061182c600260008681526020019081526020016000206117d4565b90506004600085815260200190815260200160002060018261184e9190612d2b565b8154811061185f5761185e61254a565b5b9060005260206000200160009054906101000a900473ffffffffffffffffffffffffffffffffffffffff166004600086815260200190815260200160002084815481106118af576118ae61254a565b5b9060005260206000200160006101000a81548173ffffffffffffffffffffffffffffffffffffffff021916908373ffffffffffffffffffffffffffffffffffffffff1602179055506004600085815260200190815260200160002080548061191a57611919612d5f565b5b6001900381819060005260206000200160006101000a81549073ffffffffffffffffffffffffffffffffffffffff02191690559055505b50505050565b6000806119648484611c2b565b915091508015611ae75760006119b7600360008673ffffffffffffffffffffffffffffffffffffffff1673ffffffffffffffffffffffffffffffffffffffff1681526020019081526020016000206117d4565b9050600560008573ffffffffffffffffffffffffffffffffffffffff1673ffffffffffffffffffffffffffffffffffffffff168152602001908152602001600020600182611a059190612d2b565b81548110611a1657611a1561254a565b5b9060005260206000200154600560008673ffffffffffffffffffffffffffffffffffffffff1673ffffffffffffffffffffffffffffffffffffffff1681526020019081526020016000208481548110611a7257611a7161254a565b5b9060005260206000200181905550600560008573ffffffffffffffffffffffffffffffffffffffff1673ffffffffffffffffffffffffffffffffffffffff168152602001908152602001600020805480611acf57611ace612d5f565b5b60019003818190600052602060002001600090559055505b50505050565b60008160000154905060008111611b39576040517f08c379a0000000000000000000000000000000000000000000000000000000008152600401611b3090612dda565b60405180910390fd5b6001810382600001819055505050565b6000806000611b69600260008681526020019081526020016000206117d4565b905060005b81811015611c1a578573ffffffffffffffffffffffffffffffffffffffff16600460008781526020019081526020016000208281548110611bb257611bb161254a565b5b9060005260206000200160009054906101000a900473ffffffffffffffffffffffffffffffffffffffff1673ffffffffffffffffffffffffffffffffffffffff161415611c0757806001935093505050611c24565b8080611c1290612a5a565b915050611b6e565b5060008092509250505b9250929050565b6000806000611c77600360008673ffffffffffffffffffffffffffffffffffffffff1673ffffffffffffffffffffffffffffffffffffffff1681526020019081526020016000206117d4565b905060005b81811015611d085785600560008773ffffffffffffffffffffffffffffffffffffffff1673ffffffffffffffffffffffffffffffffffffffff1681526020019081526020016000208281548110611cd657611cd561254a565b5b90600052602060002001541415611cf557806001935093505050611d12565b8080611d0090612a5a565b915050611c7c565b5060008092509250505b9250929050565b828054611d25906125a8565b90600052602060002090601f016020900481019282611d475760008555611d8e565b82601f10611d6057805160ff1916838001178555611d8e565b82800160010185558215611d8e579182015b82811115611d8d578251825591602001919060010190611d72565b5b509050611d9b9190611d9f565b5090565b5b80821115611db8576000816000905550600101611da0565b5090565b6000819050919050565b611dcf81611dbc565b82525050565b6000602082019050611dea6000830184611dc6565b92915050565b6000604051905090565b600080fd5b600080fd5b611e0d81611dbc565b8114611e1857600080fd5b50565b600081359050611e2a81611e04565b92915050565b600080fd5b600080fd5b6000601f19601f8301169050919050565b7f4e487b7100000000000000000000000000000000000000000000000000000000600052604160045260246000fd5b611e8382611e3a565b810181811067ffffffffffffffff82111715611ea257611ea1611e4b565b5b80604052505050565b6000611eb5611df0565b9050611ec18282611e7a565b919050565b600067ffffffffffffffff821115611ee157611ee0611e4b565b5b611eea82611e3a565b9050602081019050919050565b82818337600083830152505050565b6000611f19611f1484611ec6565b611eab565b905082815260208101848484011115611f3557611f34611e35565b5b611f40848285611ef7565b509392505050565b600082601f830112611f5d57611f5c611e30565b5b8135611f6d848260208601611f06565b91505092915050565b60008060408385031215611f8d57611f8c611dfa565b5b6000611f9b85828601611e1b565b925050602083013567ffffffffffffffff811115611fbc57611fbb611dff565b5b611fc885828601611f48565b9150509250929050565b600073ffffffffffffffffffffffffffffffffffffffff82169050919050565b6000611ffd82611fd2565b9050919050565b61200d81611ff2565b811461201857600080fd5b50565b60008135905061202a81612004565b92915050565b60006020828403121561204657612045611dfa565b5b60006120548482850161201b565b91505092915050565b600081519050919050565b600082825260208201905092915050565b6000819050602082019050919050565b61209281611dbc565b82525050565b60006120a48383612089565b60208301905092915050565b6000602082019050919050565b60006120c88261205d565b6120d28185612068565b93506120dd83612079565b8060005b8381101561210e5781516120f58882612098565b9750612100836120b0565b9250506001810190506120e1565b5085935050505092915050565b6000602082019050818103600083015261213581846120bd565b905092915050565b60006020828403121561215357612152611dfa565b5b600061216184828501611e1b565b91505092915050565b61217381611ff2565b82525050565b600081519050919050565b600082825260208201905092915050565b60005b838110156121b3578082015181840152602081019050612198565b838111156121c2576000848401525b50505050565b60006121d382612179565b6121dd8185612184565b93506121ed818560208601612195565b6121f681611e3a565b840191505092915050565b60008115159050919050565b61221681612201565b82525050565b600061010082019050612232600083018b611dc6565b61223f602083018a61216a565b818103604083015261225181896121c8565b9050818103606083015261226581886121c8565b9050818103608083015261227981876121c8565b905081810360a083015261228d81866121c8565b905081810360c08301526122a181856121c8565b90506122b060e083018461220d565b9998505050505050505050565b6122c681612201565b81146122d157600080fd5b50565b6000813590506122e3816122bd565b92915050565b60008060008060008060c0878903121561230657612305611dfa565b5b600087013567ffffffffffffffff81111561232457612323611dff565b5b61233089828a01611f48565b965050602087013567ffffffffffffffff81111561235157612350611dff565b5b61235d89828a01611f48565b955050604087013567ffffffffffffffff81111561237e5761237d611dff565b5b61238a89828a01611f48565b945050606087013567ffffffffffffffff8111156123ab576123aa611dff565b5b6123b789828a01611f48565b93505060806123c889828a016122d4565b92505060a087013567ffffffffffffffff8111156123e9576123e8611dff565b5b6123f589828a01611f48565b9150509295509295509295565b6000806040838503121561241957612418611dfa565b5b600061242785828601611e1b565b92505060206124388582860161201b565b9150509250929050565b6000806040838503121561245957612458611dfa565b5b60006124678582860161201b565b925050602061247885828601611e1b565b9150509250929050565b6000602082019050612497600083018461220d565b92915050565b600080fd5b600080fd5b60008083601f8401126124bd576124bc611e30565b5b8235905067ffffffffffffffff8111156124da576124d961249d565b5b6020830191508360018202830111156124f6576124f56124a2565b5b9250929050565b6000806020838503121561251457612513611dfa565b5b600083013567ffffffffffffffff81111561253257612531611dff565b5b61253e858286016124a7565b92509250509250929050565b7f4e487b7100000000000000000000000000000000000000000000000000000000600052603260045260246000fd5b7f4e487b7100000000000000000000000000000000000000000000000000000000600052602260045260246000fd5b600060028204905060018216806125c057607f821691505b602082108114156125d4576125d3612579565b5b50919050565b7f6365727469665552490000000000000000000000000000000000000000000000600082015250565b6000612610600983612184565b915061261b826125da565b602082019050919050565b600060a082019050818103600083015261263f81612603565b905061264e6020830187611dc6565b818103604083015261266081866121c8565b9050818103606083015261267481856121c8565b9050612683608083018461216a565b95945050505050565b7f7265766f6b6174696f6e43726974657269610000000000000000000000000000600082015250565b60006126c2601283612184565b91506126cd8261268c565b602082019050919050565b600060a08201905081810360008301526126f1816126b5565b90506127006020830187611dc6565b818103604083015261271281866121c8565b9050818103606083015261272681856121c8565b9050612735608083018461216a565b95945050505050565b7f6d656d6265727368697043726974657269610000000000000000000000000000600082015250565b6000612774601283612184565b915061277f8261273e565b602082019050919050565b600060a08201905081810360008301526127a381612767565b90506127b26020830187611dc6565b81810360408301526127c481866121c8565b905081810360608301526127d881856121c8565b90506127e7608083018461216a565b95945050505050565b6000602082019050818103600083015261280a81846121c8565b905092915050565b60008151905061282181611e04565b92915050565b60006020828403121561283d5761283c611dfa565b5b600061284b84828501612812565b91505092915050565b7f4f7267616e697a6174696f6e206d75737420686176652061206e616d65000000600082015250565b600061288a601d83612184565b915061289582612854565b602082019050919050565b600060208201905081810360008301526128b98161287d565b9050919050565b6000610120820190506128d6600083018c611dc6565b81810360208301526128e8818b6121c8565b90506128f7604083018a61216a565b6129046060830189611dc6565b818103608083015261291681886121c8565b905081810360a083015261292a81876121c8565b905081810360c083015261293e81866121c8565b905081810360e083015261295281856121c8565b905061296261010083018461220d565b9a9950505050505050505050565b7f43616e6e6f74206164642061206d656d62657220746f20616e206f7267616e6960008201527f7a6174696f6e2074776963650000000000000000000000000000000000000000602082015250565b60006129cc602c83612184565b91506129d782612970565b604082019050919050565b600060208201905081810360008301526129fb816129bf565b9050919050565b6000604082019050612a176000830185611dc6565b612a24602083018461216a565b9392505050565b7f4e487b7100000000000000000000000000000000000000000000000000000000600052601160045260246000fd5b6000612a6582611dbc565b91507fffffffffffffffffffffffffffffffffffffffffffffffffffffffffffffffff821415612a9857612a97612a2b565b5b600182019050919050565b7f4d656d62657273206f662074686174206f7267616e697a6174696f6e2061726560008201527f206e6f74207265766f6b61626c65000000000000000000000000000000000000602082015250565b6000612aff602e83612184565b9150612b0a82612aa3565b604082019050919050565b60006020820190508181036000830152612b2e81612af2565b9050919050565b7f476976656e2061646472657373206973206e6f742061206d656d626572206f6660008201527f20746865206f7267616e697a6174696f6e000000000000000000000000000000602082015250565b6000612b91603183612184565b9150612b9c82612b35565b604082019050919050565b60006020820190508181036000830152612bc081612b84565b9050919050565b7f6e616d6500000000000000000000000000000000000000000000000000000000600082015250565b6000612bfd600483612184565b9150612c0882612bc7565b602082019050919050565b600060a0820190508181036000830152612c2c81612bf0565b9050612c3b6020830187611dc6565b8181036040830152612c4d81866121c8565b90508181036060830152612c6181856121c8565b9050612c70608083018461216a565b95945050505050565b7f6c6f676f55524900000000000000000000000000000000000000000000000000600082015250565b6000612caf600783612184565b9150612cba82612c79565b602082019050919050565b600060a0820190508181036000830152612cde81612ca2565b9050612ced6020830187611dc6565b8181036040830152612cff81866121c8565b90508181036060830152612d1381856121c8565b9050612d22608083018461216a565b95945050505050565b6000612d3682611dbc565b9150612d4183611dbc565b925082821015612d5457612d53612a2b565b5b828203905092915050565b7f4e487b7100000000000000000000000000000000000000000000000000000000600052603160045260246000fd5b7f436f756e7465723a2064656372656d656e74206f766572666c6f770000000000600082015250565b6000612dc4601b83612184565b9150612dcf82612d8e565b602082019050919050565b60006020820190508181036000830152612df381612db7565b905091905056fea26469706673582212204fc12a36e28bc10efe542e394fca20b65ad2850faf94e328f821de34fc23942264736f6c63430008090033",
  "immutableReferences": {},
  "source": "// SPDX-License-Identifier: MIT\r\n\r\npragma solidity ^0.8.0;\r\n\r\nimport \"@openzeppelin/contracts/utils/Counters.sol\";\r\n\r\ncontract Membership {\r\n    \r\n    using Counters for Counters.Counter;\r\n    Counters.Counter public orgaCounter;\r\n    Counters.Counter public memberCounter;\r\n    \r\n    struct Organization {\r\n        uint256 id;\r\n        address admin;\r\n        string name;\r\n        string logoURI;\r\n        string certificationURI;\r\n        string membershipCriteria;\r\n        string revokationCriteria;\r\n        bool canRevoke;\r\n    }\r\n    \r\n    mapping (uint256=>Counters.Counter) public organizationToTotalMembers;\r\n    mapping (address=>Counters.Counter) public memberToTotalOrganizations;\r\n    mapping (uint256=>address[]) private _organizationToMembers;\r\n    mapping (address=>uint256[]) private _memberToOrganizations;\r\n    \r\n    Organization[] public _organizations;\r\n    \r\n    modifier onlyAdmin(uint256 orgaId_) {\r\n      require(msg.sender == _organizations[orgaId_].admin);\r\n      _;\r\n    }\r\n    \r\n    event NewOrganization(uint256 orgaId, string name, address by, uint256 createdAt,string logoURI, string certificationURI, string membershipCriteria, string revokationCriteria, bool canRevoke);\r\n    event ItemModified(string itemDesc, uint256 orgaId, string old, string newValue, address by);\r\n    event MemberAdded(uint256 orgaId, address addedMember);\r\n    event MemberRevoked(uint256 orgaId, address addedMember);\r\n    \r\n    constructor() {}\r\n    \r\n    function createOrganization(string memory name_, string memory logoURI_, string memory certificationURI_, string memory membershipCriteria_, bool canRevoke_, string memory revokationCriteria_) public {\r\n        require(this.stringLength(name_) > 0, \"Organization must have a name\");\r\n        uint256 orgaId = orgaCounter.current();\r\n        _organizations.push(\r\n            Organization(orgaId,msg.sender,name_,logoURI_,certificationURI_,membershipCriteria_,revokationCriteria_,canRevoke_)\r\n        );\r\n        organizationToTotalMembers[orgaId] = Counters.Counter(0);\r\n        orgaCounter.increment();\r\n        emit NewOrganization(orgaId,name_,msg.sender,block.timestamp,logoURI_,certificationURI_,membershipCriteria_,revokationCriteria_,canRevoke_);\r\n    }\r\n\r\n    function addMember(uint256 orgaId_, address newMember_) public onlyAdmin(orgaId_) {\r\n        require(!isMemberOf(newMember_,orgaId_),\"Cannot add a member to an organization twice\");\r\n        \r\n        //Add orga_id to member\r\n        _organizationToMembers[orgaId_].push(newMember_);\r\n        organizationToTotalMembers[orgaId_].increment();\r\n        \r\n        //Add member to orga\r\n        _memberToOrganizations[newMember_].push(orgaId_);\r\n        \r\n        memberToTotalOrganizations[newMember_].increment();\r\n        memberCounter.increment();\r\n        emit MemberAdded(orgaId_, newMember_);\r\n    }\r\n    \r\n    function revokeMember(uint256 orgaId_, address member_) public onlyAdmin(orgaId_) {\r\n        require(_organizations[orgaId_].canRevoke,\"Members of that organization are not revokable\");\r\n        require(isMemberOf(member_,orgaId_),\"Given address is not a member of the organization\");\r\n        \r\n        //Remove member from organization:\r\n        removeMemberFromOrganization(member_,orgaId_);\r\n        \r\n        //Remove orgaId from a member's list of orga_ids:\r\n        removeOrgaIdForAMember(orgaId_,member_);\r\n    \r\n        organizationToTotalMembers[orgaId_].decrement();\r\n        memberToTotalOrganizations[member_].decrement();\r\n        memberCounter.decrement();\r\n        emit MemberRevoked(orgaId_, member_);\r\n    }\r\n    \r\n    function memberOf(address member_) public view returns (uint256 [] memory) {\r\n        return _memberToOrganizations[member_];\r\n    }\r\n    \r\n    function changeName(uint256 orgaId_, string memory name_) public onlyAdmin(orgaId_) {\r\n        string memory old_name = _organizations[orgaId_].name;\r\n        _organizations[orgaId_].name = name_;\r\n        emit ItemModified(\"name\",orgaId_,old_name,name_,msg.sender);\r\n    }\r\n    \r\n    function changeLogoURI(uint256 orgaId_, string memory newURI_) public onlyAdmin(orgaId_) {\r\n        string memory old_uri = _organizations[orgaId_].logoURI;\r\n        _organizations[orgaId_].logoURI = newURI_;\r\n        emit ItemModified(\"logoURI\",orgaId_,old_uri,newURI_,msg.sender);\r\n    }\r\n    \r\n    function changeCertificationURI(uint256 orgaId_, string memory newURI_) public onlyAdmin(orgaId_) {\r\n        string memory old_uri = _organizations[orgaId_].certificationURI;\r\n        _organizations[orgaId_].certificationURI = newURI_;\r\n        emit ItemModified(\"certifURI\",orgaId_,old_uri,newURI_,msg.sender);\r\n    }\r\n    \r\n    function changeMembershipCriteria(uint256 orgaId_, string memory newMembershipCriteria_) public onlyAdmin(orgaId_) {\r\n        string memory old_criteria = _organizations[orgaId_].membershipCriteria;\r\n        _organizations[orgaId_].membershipCriteria = newMembershipCriteria_;\r\n        emit ItemModified(\"membershipCriteria\",orgaId_,old_criteria,newMembershipCriteria_,msg.sender);\r\n    }\r\n    \r\n    function changeRevokationCriteria(uint256 orgaId_, string memory newRevokationCriteria_) public onlyAdmin(orgaId_) {\r\n        string memory old_criteria = _organizations[orgaId_].revokationCriteria;\r\n        _organizations[orgaId_].revokationCriteria = newRevokationCriteria_;\r\n        emit ItemModified(\"revokationCriteria\",orgaId_,old_criteria,newRevokationCriteria_,msg.sender);\r\n    }\r\n    \r\n    function isMemberOf(address member_, uint256 orgaId_) public view returns (bool) {\r\n        for (uint256 i = 0; i<_memberToOrganizations[member_].length;i++){\r\n            if (_memberToOrganizations[member_][i] == orgaId_){\r\n                return true;\r\n            }\r\n        }\r\n        return false;\r\n    }\r\n    \r\n    function stringLength(string calldata str) external pure returns(uint256) {\r\n        return bytes(str).length;\r\n    }\r\n    \r\n    function _findMemberIdInOrga(address member_, uint256 orgaId_) internal view returns (uint256, bool) {\r\n        uint256 size = organizationToTotalMembers[orgaId_].current();\r\n        for (uint256 i = 0; i < size; i++){\r\n            if (_organizationToMembers[orgaId_][i] == member_){\r\n                return (i, true);\r\n            }\r\n        }\r\n        return (0, false);\r\n    }\r\n    \r\n    function removeMemberFromOrganization(address member_, uint256 orgaId_) internal {\r\n        (uint256 atId, bool itemFound) = _findMemberIdInOrga(member_, orgaId_);\r\n        if (itemFound){\r\n            uint256 size = organizationToTotalMembers[orgaId_].current();\r\n            _organizationToMembers[orgaId_][atId] = _organizationToMembers[orgaId_][size-1];\r\n            _organizationToMembers[orgaId_].pop();\r\n        }\r\n    }\r\n    \r\n    function _findOrgaIdForAMember(uint256 orgaId_, address member_) internal view returns (uint256, bool) {\r\n        uint256 size = memberToTotalOrganizations[member_].current();\r\n        for (uint256 i = 0; i < size; i++){\r\n            if (_memberToOrganizations[member_][i] == orgaId_){\r\n                return (i, true);\r\n            }\r\n        }\r\n        return (0, false);\r\n    }\r\n    \r\n    function removeOrgaIdForAMember(uint256 orgaId_, address member_) internal {\r\n        (uint256 atId, bool itemFound) = _findOrgaIdForAMember(orgaId_, member_);\r\n        if (itemFound){\r\n            uint256 size = memberToTotalOrganizations[member_].current();\r\n            _memberToOrganizations[member_][atId] = _memberToOrganizations[member_][size-1];\r\n            _memberToOrganizations[member_].pop();\r\n        }\r\n    }\r\n    \r\n}",
  "sourcePath": "C:\\Users\\Valerian\\Documents\\code\\members\\ETHOnline-Hackathon-NFT\\src\\contracts\\Membership.sol",
  "compiler": {
    "name": "solc",
    "version": "0.8.9+commit.e5eed63a.Emscripten.clang"
  },
  "schemaVersion": "3.4.3",
  "updatedAt": "2021-10-07T12:30:05.750Z",
  "networkType": "ethereum",
  "devdoc": {
    "kind": "dev",
    "methods": {},
    "version": 1
  },
  "userdoc": {
    "kind": "user",
    "methods": {},
    "version": 1
  }
}